{"abi":[{"type":"constructor","inputs":[{"name":"_owner","type":"address","internalType":"address"},{"name":"_name","type":"string","internalType":"string"},{"name":"_description","type":"string","internalType":"string"},{"name":"_goal","type":"uint256","internalType":"uint256"},{"name":"_durationInDays","type":"uint256","internalType":"uint256"}],"stateMutability":"nonpayable"},{"type":"function","name":"addTier","inputs":[{"name":"_name","type":"string","internalType":"string"},{"name":"_amount","type":"uint256","internalType":"uint256"}],"outputs":[],"stateMutability":"nonpayable"},{"type":"function","name":"backers","inputs":[{"name":"","type":"address","internalType":"address"}],"outputs":[{"name":"totalContribution","type":"uint256","internalType":"uint256"}],"stateMutability":"view"},{"type":"function","name":"deadline","inputs":[],"outputs":[{"name":"","type":"uint256","internalType":"uint256"}],"stateMutability":"view"},{"type":"function","name":"description","inputs":[],"outputs":[{"name":"","type":"string","internalType":"string"}],"stateMutability":"view"},{"type":"function","name":"extendDeadline","inputs":[{"name":"_daysToAdd","type":"uint256","internalType":"uint256"}],"outputs":[],"stateMutability":"nonpayable"},{"type":"function","name":"fund","inputs":[{"name":"_tierIndex","type":"uint256","internalType":"uint256"}],"outputs":[],"stateMutability":"payable"},{"type":"function","name":"getCampaignStatus","inputs":[],"outputs":[{"name":"","type":"uint8","internalType":"enum Crowdfunding.CampaignState"}],"stateMutability":"view"},{"type":"function","name":"getContractBalance","inputs":[],"outputs":[{"name":"","type":"uint256","internalType":"uint256"}],"stateMutability":"view"},{"type":"function","name":"getTiers","inputs":[],"outputs":[{"name":"","type":"tuple[]","internalType":"struct Crowdfunding.Tier[]","components":[{"name":"name","type":"string","internalType":"string"},{"name":"amount","type":"uint256","internalType":"uint256"},{"name":"backers","type":"uint256","internalType":"uint256"}]}],"stateMutability":"view"},{"type":"function","name":"goal","inputs":[],"outputs":[{"name":"","type":"uint256","internalType":"uint256"}],"stateMutability":"view"},{"type":"function","name":"hasFundedTier","inputs":[{"name":"_backer","type":"address","internalType":"address"},{"name":"_tierIndex","type":"uint256","internalType":"uint256"}],"outputs":[{"name":"","type":"bool","internalType":"bool"}],"stateMutability":"view"},{"type":"function","name":"name","inputs":[],"outputs":[{"name":"","type":"string","internalType":"string"}],"stateMutability":"view"},{"type":"function","name":"owner","inputs":[],"outputs":[{"name":"","type":"address","internalType":"address"}],"stateMutability":"view"},{"type":"function","name":"paused","inputs":[],"outputs":[{"name":"","type":"bool","internalType":"bool"}],"stateMutability":"view"},{"type":"function","name":"refund","inputs":[],"outputs":[],"stateMutability":"nonpayable"},{"type":"function","name":"removeTier","inputs":[{"name":"_index","type":"uint256","internalType":"uint256"}],"outputs":[],"stateMutability":"nonpayable"},{"type":"function","name":"state","inputs":[],"outputs":[{"name":"","type":"uint8","internalType":"enum Crowdfunding.CampaignState"}],"stateMutability":"view"},{"type":"function","name":"tiers","inputs":[{"name":"","type":"uint256","internalType":"uint256"}],"outputs":[{"name":"name","type":"string","internalType":"string"},{"name":"amount","type":"uint256","internalType":"uint256"},{"name":"backers","type":"uint256","internalType":"uint256"}],"stateMutability":"view"},{"type":"function","name":"togglePause","inputs":[],"outputs":[],"stateMutability":"nonpayable"},{"type":"function","name":"withdraw","inputs":[],"outputs":[],"stateMutability":"nonpayable"}],"bytecode":{"object":"0x608060405234801561001057600080fd5b506040516117e03803806117e083398101604081905261002f91610154565b600480546001600160a01b0319166001600160a01b03871617905560006100568582610278565b5060016100638482610278565b506002829055610076816201518061034c565b6100809042610369565b60035550506004805460ff60a81b191690555061037c915050565b634e487b7160e01b600052604160045260246000fd5b600082601f8301126100c257600080fd5b81516001600160401b038111156100db576100db61009b565b604051601f8201601f19908116603f011681016001600160401b03811182821017156101095761010961009b565b60405281815283820160200185101561012157600080fd5b60005b8281101561014057602081860181015183830182015201610124565b506000918101602001919091529392505050565b600080600080600060a0868803121561016c57600080fd5b85516001600160a01b038116811461018357600080fd5b60208701519095506001600160401b0381111561019f57600080fd5b6101ab888289016100b1565b604088015190955090506001600160401b038111156101c957600080fd5b6101d5888289016100b1565b606088015160809098015196999598509695949350505050565b600181811c9082168061020357607f821691505b60208210810361022357634e487b7160e01b600052602260045260246000fd5b50919050565b601f82111561027357806000526020600020601f840160051c810160208510156102505750805b601f840160051c820191505b81811015610270576000815560010161025c565b50505b505050565b81516001600160401b038111156102915761029161009b565b6102a58161029f84546101ef565b84610229565b6020601f8211600181146102d957600083156102c15750848201515b600019600385901b1c1916600184901b178455610270565b600084815260208120601f198516915b8281101561030957878501518255602094850194600190920191016102e9565b50848210156103275786840151600019600387901b60f8161c191681555b50505050600190811b01905550565b634e487b7160e01b600052601160045260246000fd5b808202811582820484141761036357610363610336565b92915050565b8082018082111561036357610363610336565b6114558061038b6000396000f3fe60806040526004361061011f5760003560e01c80637284e416116100a0578063b85dfb8011610064578063b85dfb8014610317578063c19d93fb14610344578063c4ae316814610365578063ca1d209d1461037a578063de1705701461038d57600080fd5b80637284e4161461026a5780637497211b1461027f5780637adba5271461029f5780638da5cb5b146102bf5780638ece7b91146102f757600080fd5b80633ccfd60b116100e75780633ccfd60b146101e657806340193883146101fb578063590e1ae3146102115780635c975abb146102265780636f9fb98a1461025757600080fd5b8063039af9eb1461012457806306fdde031461015c578063105505151461017e57806329dcb0cf146101a0578063389b7533146101c4575b600080fd5b34801561013057600080fd5b5061014461013f366004610eac565b6103af565b60405161015393929190610f0b565b60405180910390f35b34801561016857600080fd5b50610171610471565b6040516101539190610f30565b34801561018a57600080fd5b506101936104ff565b6040516101539190610f60565b3480156101ac57600080fd5b506101b660035481565b604051908152602001610153565b3480156101d057600080fd5b506101e46101df366004610eac565b61055a565b005b3480156101f257600080fd5b506101e4610618565b34801561020757600080fd5b506101b660025481565b34801561021d57600080fd5b506101e461073c565b34801561023257600080fd5b5060045461024790600160a01b900460ff1681565b6040519015158152602001610153565b34801561026357600080fd5b50476101b6565b34801561027657600080fd5b50610171610849565b34801561028b57600080fd5b506101e461029a366004610eac565b610856565b3480156102ab57600080fd5b506102476102ba366004610fa4565b61097c565b3480156102cb57600080fd5b506004546102df906001600160a01b031681565b6040516001600160a01b039091168152602001610153565b34801561030357600080fd5b506101e4610312366004610fe4565b6109ad565b34801561032357600080fd5b506101b661033236600461109f565b60066020526000908152604090205481565b34801561035057600080fd5b5060045461019390600160a81b900460ff1681565b34801561037157600080fd5b506101e4610aa0565b6101e4610388366004610eac565b610aeb565b34801561039957600080fd5b506103a2610cdb565b60405161015391906110ba565b600581815481106103bf57600080fd5b90600052602060002090600302016000915090508060000180546103e29061113f565b80601f016020809104026020016040519081016040528092919081815260200182805461040e9061113f565b801561045b5780601f106104305761010080835404028352916020019161045b565b820191906000526020600020905b81548152906001019060200180831161043e57829003601f168201915b5050505050908060010154908060020154905083565b6000805461047e9061113f565b80601f01602080910402602001604051908101604052809291908181526020018280546104aa9061113f565b80156104f75780601f106104cc576101008083540402835291602001916104f7565b820191906000526020600020905b8154815290600101906020018083116104da57829003601f168201915b505050505081565b600080600454600160a81b900460ff16600281111561052057610520610f4a565b14801561052e575060035442115b15610549576002544710156105435750600290565b50600190565b50600454600160a81b900460ff1690565b6004546001600160a01b0316331461058d5760405162461bcd60e51b815260040161058490611179565b60405180910390fd5b6000600454600160a81b900460ff1660028111156105ad576105ad610f4a565b146105f25760405162461bcd60e51b815260206004820152601560248201527443616d706169676e206973206e6f7420616769766560581b6044820152606401610584565b6105ff81620151806111b7565b6003600082825461061091906111ce565b909155505050565b6004546001600160a01b031633146106425760405162461bcd60e51b815260040161058490611179565b61064a610de0565b6001600454600160a81b900460ff16600281111561066a5761066a610f4a565b146106b75760405162461bcd60e51b815260206004820152601f60248201527f43616d7061696e67206973206e6f7420796574207375636365737366756c6c006044820152606401610584565b47806106fe5760405162461bcd60e51b81526020600482015260166024820152754e6f2062616c616e636520746f20776974686472617760501b6044820152606401610584565b6004546040516001600160a01b039091169082156108fc029083906000818181858888f19350505050158015610738573d6000803e3d6000fd5b5050565b610744610de0565b6002600454600160a81b900460ff16600281111561076457610764610f4a565b146107b15760405162461bcd60e51b815260206004820152601960248201527f526566756e647320617265206e6f7420617661696c61626c65000000000000006044820152606401610584565b336000908152600660205260409020548061080e5760405162461bcd60e51b815260206004820152601960248201527f4e6f20636f6e747269627574696f6e20746f20726566756e64000000000000006044820152606401610584565b336000818152600660205260408082208290555183156108fc0291849190818181858888f19350505050158015610738573d6000803e3d6000fd5b6001805461047e9061113f565b6004546001600160a01b031633146108805760405162461bcd60e51b815260040161058490611179565b60055481106108c65760405162461bcd60e51b8152602060048201526012602482015271151a595c88191bd95cdb89dd08195e1a5cdd60721b6044820152606401610584565b600580546108d6906001906111e1565b815481106108e6576108e66111f4565b906000526020600020906003020160058281548110610907576109076111f4565b60009182526020909120600390910201806109228382611259565b5060018281015490820155600291820154910155600580548061094757610947611339565b600082815260208120600019909201916003830201906109678282610e5e565b50600060018201819055600290910155905550565b6001600160a01b038216600090815260066020908152604080832084845260010190915290205460ff165b92915050565b6004546001600160a01b031633146109d75760405162461bcd60e51b815260040161058490611179565b60008111610a275760405162461bcd60e51b815260206004820152601e60248201527f416d6f756e74206d7573742062652067726561746572207468616e20302e00006044820152606401610584565b60408051606081018252838152602081018390526000918101829052600580546001810182559252805190916003027f036b6384b5eca791c62761152d0c79bb0604c104a5fb6f4eb0703f3154bb3db001908190610a85908261134f565b50602082015181600101556040820151816002015550505050565b6004546001600160a01b03163314610aca5760405162461bcd60e51b815260040161058490611179565b6004805460ff60a01b198116600160a01b9182900460ff1615909102179055565b6000600454600160a81b900460ff166002811115610b0b57610b0b610f4a565b14610b505760405162461bcd60e51b815260206004820152601560248201527443616d706169676e206973206e6f7420616769766560581b6044820152606401610584565b600454600160a01b900460ff1615610ba35760405162461bcd60e51b8152602060048201526016602482015275151a194818d85b5c185a59db881a5cc81c185d5cd95960521b6044820152606401610584565b6005548110610be55760405162461bcd60e51b815260206004820152600e60248201526d24b73b30b634b232903a34b2b91760911b6044820152606401610584565b60058181548110610bf857610bf86111f4565b9060005260206000209060030201600101543414610c4b5760405162461bcd60e51b815260206004820152601060248201526f125b98dbdc9c9958dd08185b5bdd5b9d60821b6044820152606401610584565b60058181548110610c5e57610c5e6111f4565b600091825260208220600260039092020101805491610c7c83611406565b90915550503360009081526006602052604081208054349290610ca09084906111ce565b90915550503360009081526006602090815260408083208484526001908101909252909120805460ff19169091179055610cd8610de0565b50565b60606005805480602002602001604051908101604052809291908181526020016000905b82821015610dd75783829060005260206000209060030201604051806060016040529081600082018054610d329061113f565b80601f0160208091040260200160405190810160405280929190818152602001828054610d5e9061113f565b8015610dab5780601f10610d8057610100808354040283529160200191610dab565b820191906000526020600020905b815481529060010190602001808311610d8e57829003601f168201915b505050505081526020016001820154815260200160028201548152505081526020019060010190610cff565b50505050905090565b6000600454600160a81b900460ff166002811115610e0057610e00610f4a565b03610e5c576003544210610e4b57600254471015610e1f576002610e22565b60015b6004805460ff60a81b1916600160a81b836002811115610e4457610e44610f4a565b0217905550565b600254471015610e1f576000610e22565b565b508054610e6a9061113f565b6000825580601f10610e7a575050565b601f016020900490600052602060002090810190610cd891905b80821115610ea85760008155600101610e94565b5090565b600060208284031215610ebe57600080fd5b5035919050565b6000815180845260005b81811015610eeb57602081850181015186830182015201610ecf565b506000602082860101526020601f19601f83011685010191505092915050565b606081526000610f1e6060830186610ec5565b60208301949094525060400152919050565b602081526000610f436020830184610ec5565b9392505050565b634e487b7160e01b600052602160045260246000fd5b6020810160038310610f8257634e487b7160e01b600052602160045260246000fd5b91905290565b80356001600160a01b0381168114610f9f57600080fd5b919050565b60008060408385031215610fb757600080fd5b610fc083610f88565b946020939093013593505050565b634e487b7160e01b600052604160045260246000fd5b60008060408385031215610ff757600080fd5b823567ffffffffffffffff81111561100e57600080fd5b8301601f8101851361101f57600080fd5b803567ffffffffffffffff81111561103957611039610fce565b604051601f8201601f19908116603f0116810167ffffffffffffffff8111828210171561106857611068610fce565b60405281815282820160200187101561108057600080fd5b8160208401602083013760006020928201830152969401359450505050565b6000602082840312156110b157600080fd5b610f4382610f88565b6000602082016020835280845180835260408501915060408160051b86010192506020860160005b8281101561113357603f1987860301845281518051606087526111086060880182610ec5565b60208381015189820152604093840151939098019290925250949384019391909101906001016110e2565b50929695505050505050565b600181811c9082168061115357607f821691505b60208210810361117357634e487b7160e01b600052602260045260246000fd5b50919050565b6020808252600e908201526d2737ba103a34329037bbb73232b960911b604082015260600190565b634e487b7160e01b600052601160045260246000fd5b80820281158282048414176109a7576109a76111a1565b808201808211156109a7576109a76111a1565b818103818111156109a7576109a76111a1565b634e487b7160e01b600052603260045260246000fd5b601f82111561125457806000526020600020601f840160051c810160208510156112315750805b601f840160051c820191505b81811015611251576000815560010161123d565b50505b505050565b818103611264575050565b61126e825461113f565b67ffffffffffffffff81111561128657611286610fce565b61129a81611294845461113f565b8461120a565b6000601f8211600181146112d157600083156112b65750848201545b600184901b600019600386901b1c198216175b855550611251565b600085815260209020601f19841690600086815260209020845b8381101561130b57828601548255600195860195909101906020016112eb565b50858310156113295781850154600019600388901b60f8161c191681555b5050505050600190811b01905550565b634e487b7160e01b600052603160045260246000fd5b815167ffffffffffffffff81111561136957611369610fce565b61137781611294845461113f565b6020601f8211600181146113a957600083156112b6575081850151600184901b600019600386901b1c198216176112c9565b600084815260208120601f198516915b828110156113d957878501518255602094850194600190920191016113b9565b50848210156113f75786840151600019600387901b60f8161c191681555b50505050600190811b01905550565b600060018201611418576114186111a1565b506001019056fea264697066735822122076873601ebf49febbc157254dc099a28028598a8c6dd861275fbaaff1725d9b264736f6c634300081c0033","linkReferences":{}},"methodIdentifiers":{"addTier(string,uint256)":"8ece7b91","backers(address)":"b85dfb80","deadline()":"29dcb0cf","description()":"7284e416","extendDeadline(uint256)":"389b7533","fund(uint256)":"ca1d209d","getCampaignStatus()":"10550515","getContractBalance()":"6f9fb98a","getTiers()":"de170570","goal()":"40193883","hasFundedTier(address,uint256)":"7adba527","name()":"06fdde03","owner()":"8da5cb5b","paused()":"5c975abb","refund()":"590e1ae3","removeTier(uint256)":"7497211b","state()":"c19d93fb","tiers(uint256)":"039af9eb","togglePause()":"c4ae3168","withdraw()":"3ccfd60b"},"id":23}